:100000000C9462000C9410030C94E9020C948A0086
:100010000C948A000C948A000C948A000C948A0038
:100020000C948A000C948A000C948A000C948A0028
:100030000C948A000C948A000C948A000C948A0018
:100040000C949F020C948A000C9442090C941C0995
:100050000C948A000C948A000C948A000C948A00F8
:100060000C948A000C948A000000000025002800EF
:100070002B000000000023002600290000000008DB
:10008000000201000003040700000000000000005F
:1000900000000000240027002A00010204081020AC
:1000A000408001020408102001020408102004040A
:1000B0000404040404040202020202020303030310
:1000C0000303F91011241FBECFEFD8E0DEBFCDBF70
:1000D00012E0A0E0B1E0ECECFBE202C005900D9272
:1000E000AA3DB107D9F723E0AAEDB2E001C01D9205
:1000F000A43EB207E1F710E0C2E6D0E004C02197C9
:10010000FE010E946511C136D107C9F70E94210D79
:100110000C94E4150C94000080E090E0892B29F009
:100120000E94A70881110C9400000895833081F08B
:1001300028F4813099F08230A1F008958730A9F039
:100140008830B9F08430D1F4809180008F7D03C075
:10015000809180008F7780938000089584B58F7799
:1001600002C084B58F7D84BD08958091B0008F77E3
:1001700003C08091B0008F7D8093B00008953FB799
:10018000F8948091E6029091E702A091E802B09184
:10019000E90226B5A89B05C02F3F19F00196A11DC5
:1001A000B11D3FBFBA2FA92F982F8827820F911D0D
:1001B000A11DB11DBC01CD0142E0660F771F881F54
:1001C000991F4A95D1F708950895F8942091D8037E
:1001D000233021F42091E00221110FC02091D80397
:1001E000233011F4789407C0DC01ED91FC91028872
:1001F000F389E02D099580E00895DC01ED91FC91F3
:100200000488F589E02D61E0099581E0089581E099
:100210008093EC028091EA029091EB02DC01ED9177
:10022000FC910484F585E02D09951092EC02089567
:100230000895FC01848DDF01A80FB11DA35ABF4FA3
:100240002C91848D90E001968F739927848FA689D5
:10025000B7892C93A089B1898C9180648C93938DFC
:10026000848D981306C00288F389E02D80818F7DEC
:1002700080830895CF93DF93282F30E0F901E4586D
:10028000FF4F8491F901E656FF4FD491F901E255F1
:10029000FF4FC491CC2391F081110E949600EC2F66
:1002A000F0E0EE0FFF1FEE58FF4FA591B491EC91D7
:1002B000ED2381E090E021F480E002C080E090E056
:1002C000DF91CF9108951F93CF93DF93282F30E0D4
:1002D000F901E458FF4F8491F901E656FF4FD4919C
:1002E000F901E255FF4FC491CC23C9F0162F8111BB
:1002F0000E949600EC2FF0E0EE0FFF1FE859FF4F31
:10030000A591B4918FB7F894111105C09C91ED2F70
:10031000E095E92302C0EC91ED2BEC938FBFDF91C8
:10032000CF911F910895CF93DF93EC0161E08A8113
:100330000E94630189858CBD8A858DBD8091EC0208
:10034000811101C07894DF91CF910895FC01F89458
:100350008CB581878DB582878CB5837F8CBD8CB53C
:100360008F7D8CBD8CB58C7F8CBD8DB58E7F8DBD0A
:1003700060E082810C946301CF93DF9390E0FC01F5
:10038000E656FF4F2491FC01E255FF4F84918823EC
:1003900061F190E0880F991FFC01E057FF4FC59174
:1003A000D491FC01E859FF4FA591B491611109C0A6
:1003B0009FB7F8948881209582238883EC912E231F
:1003C0000BC0623061F49FB7F8943881822F80951A
:1003D00083238883EC912E2B2C939FBF06C08FB76D
:1003E000F894E8812E2B28838FBFDF91CF91089559
:1003F0008F929F92AF92BF92CF92DF92EF92FF9235
:100400006B017C010E94BF004B015C01C114D1044F
:10041000E104F104F1F00E94BF00DC01CB01881976
:100420009909AA09BB09883E9340A105B10570F35B
:1004300021E0C21AD108E108F10888EE880E83E0B5
:10044000981EA11CB11CC114D104E104F10419F7D8
:10045000DDCFFF90EF90DF90CF90BF90AF909F9057
:100460008F9008952FB7F8946091E2027091E302A3
:100470008091E4029091E5022FBF08953F924F9240
:100480005F926F927F928F929F92AF92BF92CF9224
:10049000DF92EF92FF920F931F93CF93DF93EC01C4
:1004A000162F5A01922E302E812CCE2CD12CE12CDD
:1004B000F12CE881F9810190F081E02D01E0292DF6
:1004C000A501612FCE0109950E9432022B013C014A
:1004D0000E943202DC01CB0184199509A609B709F3
:1004E0008C159D05AE05BF05A0F4E881F981048057
:1004F000F581E02DCE010995882351F39091F50205
:10050000911711F01F3F21F79091DD02911105C065
:10051000DFCF8394381468F680E0DF91CF911F918C
:100520000F91FF90EF90DF90CF90BF90AF909F9092
:100530008F907F906F905F904F903F9008951F92A3
:100540000F920FB60F9211242F933F938F939F9387
:10055000AF93BF938091E2029091E302A091E402F5
:10056000B091E5023091E10223E0230F2D3720F412
:100570000196A11DB11D05C026E8230F0296A11DFD
:10058000B11D2093E1028093E2029093E302A093D5
:10059000E402B093E5028091E6029091E702A09117
:1005A000E802B091E9020196A11DB11D8093E60217
:1005B0009093E702A093E802B093E902BF91AF9154
:1005C0009F918F913F912F910F900FBE0F901F9091
:1005D00018951F920F920FB60F9211242F933F93ED
:1005E0004F935F936F937F938F939F93AF93BF933B
:1005F000EF93FF93E0910201F09103010995FF91C0
:10060000EF91BF91AF919F918F917F916F915F918A
:100610004F913F912F910F900FBE0F901F90189503
:100620001F920F920FB60F9211242F933F934F9367
:100630005F936F937F938F939F93AF93BF93EF934A
:10064000FF93E0910001F09101010995FF91EF9175
:10065000BF91AF919F918F917F916F915F914F91DA
:100660003F912F910F900FBE0F901F901895CF9331
:10067000DF93EC0161E088810E9463018B818CBD76
:100680008C818DBDDF91CF910895FC018CB5838362
:100690008DB58483958186819CBD8DBD60E0808110
:1006A0000C9463018EBD00000DB407FEFDCF8EB526
:1006B00008950F931F93CF93DF93EC01162F4423DC
:1006C00039F040E066E00E945903CE010E943703F2
:1006D000CE010E94450385E00E94520380E00E9403
:1006E0005203082FCE010E94370300FDF1CFCE0147
:1006F0000E944503812FDF91CF911F910F910C94A0
:100700005203EF92FF920F931F93CF93DF931F92A9
:10071000CDB7DEB77C01142F062F41E062E5598387
:100720000E945903802F0E9452035981852F0E94F5
:100730005203812F0E945203C7010F90DF91CF9186
:100740001F910F91FF90EF900C943703EF92FF925F
:100750000F931F93CF93DF9300D0CDB7DEB77C010B
:10076000142F062F41E062E02A8359830E94590327
:10077000802F0E9452035981852F0E945203812F9E
:100780000E9452032A81822F0E945203C7010F90B8
:100790000F90DF91CF911F910F91FF90EF900C94EC
:1007A00037030F931F93CF93DF9300D0CDB7DEB7FE
:1007B0008C01DC01ED91FC91008CF18DE02D4A83E0
:1007C000698309956981862F80680E9452034A8156
:1007D000842F0E945203D801ED91FC91028CF38D7D
:1007E000E02DC8010F900F90DF91CF911F910F91D5
:1007F00009941F93CF93DF93EC01162F611102C070
:1008000045E501C04DE56AE5CE010E94D103111115
:1008100002C040E701C04CE76CE5CE01DF91CF910B
:100820001F910C94D103CF92DF92EF92FF921F930E
:10083000CF93DF93EC016A017B011091D803143050
:1008400039F4E881F9810488F589E02D63E00995A0
:10085000C701B6010E94B21420E034E244E752E43A
:100860000E946B110E94DD116B017C01A7016627BC
:10087000772767E0CE010E94D10377276F2D5E2D89
:100880004D2D68E0CE010E94D1034C2D69E0CE01D0
:100890000E94D103133041F4E881F9810488F5897D
:1008A000E02D62E0CE010995E881F9810488F5899F
:1008B000E02D612FCE01DF91CF911F91FF90EF903E
:1008C000DF90CF900994EF92FF921F93CF93DF9325
:1008D0001F92CDB7DEB77C01DC01ED91FC91008C5D
:1008E000F18DE02D698309956981862F8F770E94AC
:1008F000520380E00E945203182FD701ED91FC9122
:10090000028CF38DE02DC7010995812F0F90DF91A7
:10091000CF911F91FF90EF900895CF93DF93EC015B
:100920006887611102C04AE101C04FE063E1CE0176
:100930000E94D1038885882341F061E1CE010E94A5
:1009400063048F71482F406602C04F81406861E1A7
:10095000CE01DF91CF910C94D103CF93DF93EC01C3
:10096000109233031092F5021092DF021092E0020F
:100970001092DE021092DD021092DC021092DB0275
:1009800068E20E94630482FF0AC06DE3CE010E9408
:100990006304482F44606DE3CE010E94D10340E41C
:1009A00065E2CE010E94D103E881F9810488F589CE
:1009B000E02D63E0CE01DF91CF910994CF93DF93D7
:1009C0002091D8032330C9F42091E002211115C0F1
:1009D000EC0164E20E94630490E091958195910995
:1009E0008C349F4F54F4E881F9810488F589E02D17
:1009F00061E0CE01099581E001C080E0DF91CF91F7
:100A000008954F925F926F927F92AF92BF92CF9272
:100A1000DF92EF92FF920F931F93CF93DF93EC013E
:100A20005B01F42E1092DE021091F502C090DB0201
:100A3000D090DC026DE30E946304482F44606DE3B4
:100A4000CE010E94D1030E9432022B013C01CE0153
:100A50000E94DE04882311F11093F502E881F981E8
:100A60000088F189E02DEE24E39400E02F2DA5010C
:100A7000612FCE010995D092DC02C092DB02DF919A
:100A8000CF911F910F91FF90EF90DF90CF90BF908B
:100A9000AF907F906F905F904F9008950E943202C8
:100AA000DC01CB0184199509A609B709883E93405A
:100AB000A105B10588F6E881F9810480F581E02D72
:100AC000CE010995C4CF8F929F92AF92BF92CF92E1
:100AD000DF92EF92FF920F931F93CF93DF93EC017E
:100AE000162F6A01F22E6DE30E946304482F4460C2
:100AF0006DE3CE010E94D1030E9432024B015C01E2
:100B0000CE010E94DE048823C1F0E881F9810088CB
:100B1000F189E02DE12C2F2DA601612FCE01099541
:100B2000DF91CF911F910F91FF90EF90DF90CF90C9
:100B3000BF90AF909F908F9008950E943202DC0189
:100B4000CB0188199909AA09BB09883E9340A105E0
:100B5000B105D8F6E881F9810480F581E02DCE0158
:100B60000995CECFCF93DF93EC01603208F06FE1AF
:100B70006F838885882311F066956F8361E1CE01CC
:100B80000E946304807E9F81482F492B61E1CE0142
:100B9000DF91CF910C94D1031F93CF93DF932091DA
:100BA000D803621709F45DC0162FEC016230E9F139
:100BB00068F4662309F440C0613009F052C061E076
:100BC0000E946304837E482F44603BC06330B9F0C9
:100BD000643009F046C061E00E946304837E482FC0
:100BE0004C6061E0CE010E94D1038885882369F1C1
:100BF000E881F9810688F789E02D61E013C061E0A2
:100C00000E946304837E482F406161E0CE010E9410
:100C1000D10388858823C9F0E881F9810688F7899E
:100C2000E02D60E0CE01099510C061E00E946304F0
:100C3000837E482F486005C061E00E946304482F0E
:100C4000437E61E0CE010E94D1038091D8038111DF
:100C500006C067E2CE010E94630487FFF6CF1093BF
:100C6000D803DF91CF911F9108950F931F93CF93D6
:100C7000DF938C0167E00E946304D82F68E0C8010D
:100C80000E946304C82F69E0C8010E9463044D2FCD
:100C900050E060E070E0BA0155274427480F511D2D
:100CA000611D711D8C2F90E0982F88278A019B0170
:100CB000080F191F211D311DC901B8010E94B2146E
:100CC00020E034E244E752E40E94EF140E94DD1178
:100CD000DF91CF911F910F910895EF92FF921F9393
:100CE000CF93DF93EC018091D803833001F568E264
:100CF000CE010E94630482FD2EC019C0809133038F
:100D00008D3330F4E0913303F0E0EA50FD4F108270
:100D1000E881F981028CF38DE02DCE010995E881FF
:100D2000F9810488F589E02D63E0CE01099564E23C
:100D3000CE010E94630490E091958195910995956B
:100D400087959093DC028093DB02DF91CF911F9116
:100D5000FF90EF900895E881F9810488F589E02DEE
:100D600061E0CE010995E881F981008CF18DE02DDB
:100D7000CE01099580E00E94520380E00E94520358
:100D80008093E0028091E0028334D0F48091E0020D
:100D90008093E00280E00E9452038093DF028E8104
:100DA000811109C09091DF028D81981721F0809107
:100DB000DF028F3F39F48091E002833018F017C0D2
:100DC00082E4E6CF1092E002E881F981028CF38D93
:100DD000E02DCE010995E881F9810288F389E02DA3
:100DE000CE01DF91CF911F91FF90EF9009948091F8
:100DF000E00283508093330380E00E94520380938B
:100E0000F50280E00E945203982F90789093DD02C3
:100E1000982F90749093DE02E881F9810684F7851B
:100E2000E02D682FCE01099510E08091330318174B
:100E300008F064CFE12EF12C80E00E945203F7010C
:100E4000EA50FD4F80831F5FF0CFCF92DF92EF9289
:100E5000FF920F931F93CF93DF93EC01F62ED42EC6
:100E6000C52E122FE881F9810488F589E02D61E013
:100E7000099567E2CE010E94630487FFFACF40E044
:100E800065E2CE010E94D1031E3308F01DE3E1109C
:100E900004C0002321F000E403C000E801C000E02A
:100EA000E881F981008CF18DE02DCE01099580E873
:100EB0000E94520383E0810F0E9452038F2D0E94F3
:100EC00052038D810E945203802F0E9452030D2DE8
:100ED000ED2CFC2C8E2D801B811730F4F7018191B5
:100EE0007F010E945203F6CFE881F981028CF38DD5
:100EF000E02DCE010995E881F9810488F589E02D7E
:100F000064E0CE0109950E9432026B017C018B8165
:100F10000E943A01892B81F0E881F9810488F589E2
:100F2000E02D61E0CE01DF91CF911F910F91FF90F5
:100F3000EF90DF90CF9009940E943202DC01CB0148
:100F40008C199D09AE09BF09883E9340A105B105E2
:100F5000F0F2E2CFEF92FF920F931F93CF93DF93C4
:100F600084E00E943A0185E00E943A0187E00E94F5
:100F70003A0189E00E943A018FE00E943A0180E143
:100F80000E943A0184E391E00E945D0C61E083E0FD
:100F90000E94630161E086E00E94630184E00E9498
:100FA0003A018C0185E00E943A017C0187E00E94B1
:100FB0003A01EC0189E00E943A01EA94EF2871F7C6
:100FC000012B61F7019751F7CD2B41F761E08EE0DE
:100FD0000E94630160E27EE480E090E00E94F801FC
:100FE00060E27EE480E090E00E94F80160E27EE44E
:100FF00080E090E00E94F80160E27EE480E090E012
:101000000E94F80160E27EE480E090E00E94F80136
:1010100060E27EE480E090E00E94F80160E27EE41D
:1010200080E090E00E94F80160E08EE00E946301A1
:101030008FE00E943A01EC0180E10E943A01219781
:10104000B9F7892BA9F760E177E280E090E00E9490
:10105000F80160E086E00E94630187E00E943A01A7
:10106000EC0189E00E943A012197B9F7892BA9F791
:1010700060E083E00E94630184E00E943A01EC0199
:1010800085E00E943A012197B9F7892BA9F7DF91F2
:10109000CF911F910F91FF90EF900895CF92DF9223
:1010A000EF92FF920F931F93CF93DF936C017A011E
:1010B0008B01C0E0D0E0CE15DF0589F0D8016D913D
:1010C0008D01D601ED91FC910190F081E02DC601DA
:1010D0000995892B11F47E0102C02196ECCFC7013E
:1010E000DF91CF911F910F91FF90EF90DF90CF9004
:1010F0000895FC01918D828D981761F0828DDF013A
:10110000A80FB11D5D968C91928D9F5F9F73928FFA
:1011100090E008958FEF9FEF0895FC01918D828DEF
:10112000981731F0828DE80FF11D858D90E00895BC
:101130008FEF9FEF0895FC01918D228D892F90E014
:10114000805C9F4F821B91098F739927089584E3D8
:1011500093E00E949B0821E0892B09F420E0822F74
:1011600008950E940C12EF92FF920F931F93CF935A
:10117000DF93EC0181E0888F9B8D8C8D981305C0E7
:10118000E889F989808185FD24C0F62E0B8D10E059
:101190000F5F1F4F0F731127E02E8C8DE8120CC0CC
:1011A0000FB607FCFACFE889F989808185FFF5CF72
:1011B000CE010E941901F1CF8B8DFE01E80FF11DC8
:1011C000E35AFF4FF0820B8FEA89FB8980818062AE
:1011D00007C0EE89FF896083E889F989808180648E
:1011E000808381E090E0DF91CF911F910F91FF907C
:1011F000EF900895CF93DF93EC01888D8823C9F099
:10120000EA89FB89808185FD05C0A889B9898C910F
:1012100086FD0FC00FB607FCF5CF808185FFF2CFAA
:10122000A889B9898C9185FFEDCFCE010E94190163
:10123000E7CFDF91CF9108951F920F920FB60F92D3
:1012400011242F933F934F935F936F937F938F93CB
:101250009F93AF93BF93EF93FF9384E393E00E9438
:101260001901FF91EF91BF91AF919F918F917F9164
:101270006F915F914F913F912F910F900FBE0F9003
:101280001F9018951F920F920FB60F9211242F9353
:101290008F939F93EF93FF93E0914403F091450365
:1012A0008081E0914A03F0914B0382FD12C090814E
:1012B00080914D038F5F8F7320914E03821751F001
:1012C000E0914D03F0E0EC5CFC4F958F80934D0373
:1012D00001C08081FF91EF919F918F912F910F908D
:1012E0000FBE0F901F9018952F923F924F925F92D2
:1012F0006F927F928F929F92AF92BF92CF92DF9226
:10130000EF92FF920F931F93CF93DF93CDB7DEB78A
:10131000EE970FB6F894DEBF0FBECDBFFC010DAB4C
:101320001EAB2FAB38AF49AF5AAF6BAF2DB73EB73F
:101330003DAF2CAF80913303843008F488C2809194
:10134000F602863409F083C28091F7028C3409F0EA
:101350007EC28091F802883509F079C28091F90245
:101360008F3309F074C2A090F50280913303873067
:10137000A9F48091FA02853489F48091FB028F34BC
:1013800069F48091FC02863449F400E026E047E1EC
:1013900052E06A2DCF010E94630559C208E111E0B5
:1013A0001D8F0C8F82818E8F83818F8F848188A384
:1013B000858189A386818AA387818BA380858CA35D
:1013C00081858DA382858EA387E0FE01F596DE01DF
:1013D0009E9601900D928A95E1F746E067E172E0F2
:1013E000CE014C960E94010582EB92E00E945D0CBA
:1013F00083E592E00E94850CCE014C960E94350652
:10140000605C7D4B804F9F4F4AE00E94E00C0E9441
:10141000590CCE014C960E943506AB01BC01405CD4
:101420005D4B604F7F4FCE014C960E9413041A8B88
:10143000098B8E8D8B8B8F8D8C8B88A18D8B89A149
:101440008E8B8AA18F8B8BA1888F8CA1898F8DA188
:101450008A8F8EA18B8F87E0FE01BE96DE01979664
:1014600001900D928A95E1F740E050E0BA01CE017B
:1014700087960E94810341E062E0CE0187960E9438
:10148000590380E00E94520380E00E94520380E0F2
:101490000E94520304EC12E0B2E00B3C1B0731F057
:1014A000D8018D918D010E945203F6CFCE0187960F
:1014B0000E9437032AE349E050E060E070E0CE018B
:1014C00087960E94A6030E9432021B012C010AE0AB
:1014D00010E0812C912CCE0141960E94E500B82E9F
:1014E000882301F18091F5028A111CC0E09033033A
:1014F000F3E0FE1528F48091F602863409F478C0F2
:1015000061E089E00E94BC0161E089E00E94630122
:1015100061E070E080E090E00E94F80160E089E026
:101520000E9463010E943202DC01CB0182199309FF
:10153000A409B509893B9B40A105B10560F2B12C16
:1015400027C046E067E172E0CE0141960E940105A6
:1015500087E192E00E945D0C2F2D47E050E060E0B3
:1015600070E0CE0187960E94A60326EF200F48E088
:1015700050E060E070E0CE0187960E94A6032AE367
:1015800049E050E060E070E0CE0187960E94A6033B
:1015900081E592E00E94850CCE014C960E943506B2
:1015A000605472448F4091094AE00E94E00C0E940E
:1015B000590CCE014C960E943506AB01BC0140543B
:1015C00052446F407109CE014C960E941304BB2017
:1015D00031F088E692E00E94850C0E94CE0C89E8EA
:1015E00092E00E94850C88E991E00E945D0C2FC179
:1015F0008091F7028C3409F083CF8091F80288350E
:1016000009F07ECF8091F9028A3309F0DAC0E6E072
:10161000EE1508F0D6C084E090E0C12CD12CF82E55
:101620002FEF280FFC01EA50FD4F3081303308F4D2
:1016300004C130813A3308F000C140815AE05C9D1A
:1016400090015D9D300D1124690160E3C61AD10837
:10165000C40ED11C01968830910509F785E092E00F
:101660000E94850C8E2D90E0A0E0B0E04AE0BC0125
:10167000CD010E94E00C8DEE91E00E94850C6DB6CC
:101680007EB64E2D50E0440F551FCA0101962DB76E
:101690003EB7281B390B0FB6F8943EBF0FBE2DBFC7
:1016A0008DB79EB701962C013FEF431A530ADC0118
:1016B00026EF32E0622FE6EFF2E06E1B6E15B8F413
:1016C000F90161919F01762F72957F7070637A3373
:1016D0000CF0795D7C936F7060636A330CF0695D28
:1016E000F2016083F2E04F0E511C1296E3CFFC0131
:1016F000E40FF51F10820E945D0C0FB6F8947EBEB9
:101700000FBE6DBEE1E0EF0DF0E0EA50FD4F8081CD
:101710008A3309F014CF0E9432021B012C01C81435
:10172000D90439F0C4010197C816D90609F049C097
:1017300026C0F394F3944601FFEF8F1A9F0AFE141C
:10174000F0F4EF2DF0E0EA50FD4F208138013FEF3B
:10175000631A730AA80160E070E0CE0187960E94C8
:10176000A603C3019F77892B39F4A30160E070E0E1
:10177000CE0187960E948103F3948301E0CFDF922C
:10178000CF92ADE0B2E0BF93AF9321E030E02C0FF9
:101790003D1F3F932F930E941112482FCE010196B7
:1017A0004EAF0E945D0C4EADBE016F5F7F4FCE010C
:1017B00041960E9401050F900F900F900F900F908F
:1017C0000F908091F9028F3309F09ACE34E0E31242
:1017D0000CC046E067E172E0CE0141960E9401052F
:1017E0008EE192E00E945D0C8BCE57E0E51288CE30
:1017F0008091FA02853409F083CE8091FB028F3408
:1018000009F07ECE8091FC02863409F079CE780111
:101810006AE0E61AF10881E0E8168CE7F80608F4B9
:1018200090CE8CE292E00E945D0C47E069E472E0A9
:10183000CE0141960E94010582CE30813A3309F0F3
:1018400009CF8F2DF22E843009F008CF78CE8CADE1
:101850009DAD0FB6F8949EBF0FBE8DBFEE960FB62E
:10186000F894DEBF0FBECDBFDF91CF911F910F91D6
:10187000FF90EF90DF90CF90BF90AF909F908F90B0
:101880007F906F905F904F903F902F9008950097BA
:1018900069F0FC0101900020E9F73197AF01481B86
:1018A000590BBC0184E393E00C944E0880E090E077
:1018B00008958CEC92E00C94470CCF93DF930E9438
:1018C000470CEC010E94590C8C0F9D1FDF91CF91AA
:1018D0000895CF93DF9381ED93E00E9445038FE954
:1018E0000E94520380E00E945203C82FD0E0DC2FF8
:1018F000CC2780E00E945203C82B81ED93E00E9428
:101900003703CE01DF91CF9108950C94470CEF92ED
:10191000FF920F931F93CF93DF93EC0161E089ED6A
:1019200093E00E94CC052097C1F089ED93E00E94DE
:10193000A6018EEB0E9452038E017E0180E1E80E2B
:10194000F11CF80181918F010E9452030E151F05B1
:10195000C1F789ED93E00E9493016DE389ED93E077
:101960000E9463048E7F41E0CD2B09F440E0482BB8
:101970006DE389ED93E0DF91CF911F910F91FF907F
:10198000EF900C94D103E0913403F0913503019072
:10199000F081E02D682F84E393E009948FEC92E0CE
:1019A0000E94850C98E088E10FB6F894A895809382
:1019B00060000FBE909360008EE20E94C30CFCCFCB
:1019C0008F929F92AF92BF920F931F93CF93DF930B
:1019D000CDB7DEB7A1970FB6F894DEBF0FBECDBF6F
:1019E00019A2423008F44AE08E010F5D1F4F842E89
:1019F000912CA12CB12CA50194010E944311E62F3A
:101A0000B901CA0101501109EA3014F4E05D01C0C6
:101A1000E95CD801EC93232B242B252B61F7C8011B
:101A20000E94470CA1960FB6F894DEBF0FBECDBF43
:101A3000DF91CF911F910F91BF90AF909F908F90AA
:101A40000895CF93DF93CDB7DEB7AE970FB6F89476
:101A5000DEBF0FBECDBF789484B5826084BD84B5EF
:101A6000816084BD85B5826085BD85B5816085BD99
:101A700080916E00816080936E0010928100809151
:101A800081008260809381008091810081608093D9
:101A90008100809180008160809380008091B100FE
:101AA00084608093B1008091B00081608093B00029
:101AB00080917A00846080937A0080917A008260BD
:101AC00080937A0080917A00816080937A0080917F
:101AD0007A00806880937A001092C10061E089E00A
:101AE0000E94BC01E0914403F091450382E08083B1
:101AF000E0914003F09141031082E0914203F091A4
:101B0000430330E1308310924C03E0914803F0919D
:101B1000490326E02083E0914603F091470390813A
:101B200090619083E0914603F09147039081986023
:101B30009083E0914603F0914703908190689083F1
:101B4000E0914603F091470390819F7D90839EE250
:101B5000AE014F5F5F4F7A01FA01492F11924A950A
:101B6000E9F741E0498354E05A838B8343E04D8396
:101B70008E835F8380E4888755E059874A872B8767
:101B800023E32C8747E04D8728E02F8729E0298B26
:101B900029E12B8B22E42C8B55E25D8B8E8B56E258
:101BA0005F8B488F48E2498F3A8F39E23B8F3CED9B
:101BB0003C8F9D8F98E89E8F9FE29F8F9DE298A318
:101BC00090E399A337E33BA330E93CA338E33DA37B
:101BD0002EA32CE32FA32FE828A72DE329A722E18A
:101BE0002AA72FE62BA79CA79FEF9DA79CE69E8781
:101BF000888B84EA8AA361E08091DB030E94630101
:101C000061E08091DB030E94BC01DFB6F894809113
:101C1000ED02811127C0E8EBF0E08491E4EAF0E006
:101C20009491E82FF0E0EE0FFF1FE057FF4FA591D2
:101C3000B491EC91E92321F461E08AE00E94630110
:101C400061E08AE00E94BC018CB580618CBD8CB5DE
:101C500080648CBD61E08DE00E94BC0161E08BE09E
:101C60000E94BC018091ED028F5F8093ED02DFBE88
:101C70000E9432024B015C014AEA6FE289ED93E077
:101C80000E94D1036FE289ED93E00E9463048A3AD7
:101C900061F00E943202DC01CB0188199909AA097E
:101CA000BB09C297A105B10538F30E9432024B016E
:101CB0005C0145E56FE289ED93E00E94D1036FE29C
:101CC00089ED93E00E946304853561F00E94320241
:101CD000DC01CB0188199909AA09BB09C297A105A2
:101CE000B10538F3D12CF701ED0DF11DED0DF11D0E
:101CF00060816F3F39F0418189ED93E00E94D1030B
:101D0000D394F1CF80E090E00E94870C6091E103D2
:101D100089ED93E00E948D0461E089ED93E00E94DB
:101D2000CC050E9432024B015C0167E289ED93E031
:101D30000E94630487FD0CC00E943202DC01CB01CB
:101D400088199909AA09BB09C297A105B10568F3C9
:101D50000E943202DC01CB0188199909AA09BB094A
:101D6000C297A105B10540F51092EC028091DD0308
:101D70008230C8F4E82FF0E0EE0FFF1FE050FF4F75
:101D800027E031E031832083813039F08091690090
:101D9000836080936900E89A06C0809169008C6036
:101DA00080936900E99A89ED93E09093EB02809328
:101DB000EA0282E08093DE038DE391E00E94870CCB
:101DC00061E089ED93E00E948D048EE491E00E9431
:101DD000850C8CB58093D4038DB58093D50361E0D9
:101DE0008091D1030E94BC0180E58093D6031092BC
:101DF000D70381ED93E00E94370340E06BEA81ED69
:101E000093E00E94590381ED93E00E943703809193
:101E1000D2039091D303892B09F4DBC10E94690C92
:101E20002091D2033091D3038217930709F4D1C1D3
:101E30008CE591E00E945D0C61E083E00E94BC01B2
:101E400060E084E00E94BC0160E085E00E94BC018B
:101E500061E086E00E94BC0160E087E00E94BC0176
:101E600060E089E00E94BC0161E08EE00E94BC015C
:101E700060E08FE00E94BC0160E080E10E94BC0154
:101E800060E081E10E94BC0198E1C92E91E0D92E69
:101E900064EF71E080E090E00E94F80181E10E942F
:101EA0003A010E9432024B015C0181E10E943A0139
:101EB0008130910589F49093F4028093F3020E949B
:101EC000AA070E9432026093EF027093F00280939F
:101ED000F1029093F20220C08091F3029091F402FB
:101EE0000197D1F48091EF029091F002A091F1025C
:101EF000B091F202881A990AAA0ABB0A50E885161C
:101F000059EA950653E0A506B10430F01092F402A8
:101F10001092F3020E94AA0784E393E00E949B08B8
:101F2000181619060CF0EAC084E393E00E947908C1
:101F30008093EE028436A1F581E791E00E945D0C6A
:101F4000812C912C540140E063E081ED93E00E94EC
:101F5000590380E00E945203892D0E945203882D6C
:101F60000E94520380E00E945203182F81ED93E0FB
:101F70000E943703612F70E080E090E040E10E9412
:101F8000E00C8EE20E94C30C8FEF881A980AA80A10
:101F9000B80AE1E08E169E06A104B104A1F634C091
:101FA000853621F580E891E00E94850C41E060E6ED
:101FB00081ED93E00E94590381ED93E00E94370385
:101FC00081ED93E00E94450385E00E94520380E08A
:101FD0000E945203B82E81ED93E00E943703B0FCBB
:101FE000EFCF88E991E00E945D0C88C0893679F4D2
:101FF0008DE991E00E94850C0E94690CBC0180E093
:1020000090E040E10E94E00C0E94590C77C08237BA
:1020100031F488EA91E00E94850C0E94CE0C823552
:1020200009F047C082EB91E00E94850C83EC91E0BF
:102030000E945D0C812C912C5401839489ED93E0D6
:102040000E94A601882D0E94520380E00E94520344
:10205000482E89ED93E00E94930140E1C501B4014F
:102060000E94E00C87ED91E00E94850C512C612CC0
:10207000712C40E1C301B2010E94E00C87ED91E0B8
:102080000E94850C42E0C301B2010E94E00C0E9454
:10209000590CFFEF8F1A9F0AAF0ABF0A40E584165A
:1020A0009104A104B10451F689ED93E00E949301DB
:1020B00025C080538A3010F58BED91E00E94850C8D
:1020C0008091EE020E94C30C82EC92E00E94850C8B
:1020D0000E94320260FD02C02BEB01C02AEA40914F
:1020E000EE02042E000C550B40535109052E000C36
:1020F000660B770B81ED93E00E94A60389ED93E0D8
:102100000E94E500882309F461C087EE91E00E94F7
:10211000850C6091F50270E080E090E04AE00E945A
:10212000E00C8AE30E94C30C6091330370E080E00E
:1021300090E04AE00E94E00C8DEE91E00E94850C58
:10214000B12C80913303B81678F4EB2DF0E0EA500F
:10215000FD4F6081062E000C770B880B990B40E138
:102160000E94E00CB394EDCF0E94590CDA82C98230
:102170008091DB038B838091DC038C838091DD0372
:102180008D838091DE038E838091DF038F83809126
:10219000E00388878091E10389878091E2038A8741
:1021A0008091E3038B870091D1031091D20320919A
:1021B000D3033091D4034091D5035091D60360915D
:1021C000D703C7010E9474090E94590C0E948C0019
:1021D0005FCE41E061E081ED93E00E94590380E031
:1021E0000E94520381ED93E00E94370382EF91E059
:1021F00021CEE4E3F3E01382128288EE93E0A0E0C4
:10220000B0E084839583A683B78388E091E09183CF
:10221000808385EC90E09587848784EC90E09787B5
:10222000868780EC90E0918B808B81EC90E0938BA3
:10223000828B82EC90E0958B848B86EC90E0978B80
:10224000868B118E128E138E148EE9EDF3E088E1E9
:1022500091E0918380838AE0828382E08383148289
:1022600081E08093D80316828FE187831086E1EDA9
:10227000F3E080E58583168288E0808380E39FEE2B
:10228000928381830895A1E21A2EAA1BBB1BFD0134
:102290000DC0AA1FBB1FEE1FFF1FA217B307E40745
:1022A000F50720F0A21BB30BE40BF50B661F771F9D
:1022B000881F991F1A9469F760957095809590957D
:1022C0009B01AC01BD01CF010895EE0FFF1F0590EA
:1022D000F491E02D09940E947F110C9473150E94D3
:1022E0006C1558F00E94651540F029F45F3F29F005
:1022F0000C945C1551110C94A7150C9462150E9456
:10230000841568F39923B1F3552391F3951B550B6D
:10231000BB27AA2762177307840738F09F5F5F4FB8
:10232000220F331F441FAA1FA9F335D00E2E3AF0F7
:10233000E0E832D091505040E695001CCAF72BD00F
:10234000FE2F29D0660F771F881FBB1F2617370760
:102350004807AB07B0E809F0BB0B802DBF01FF2792
:1023600093585F4F3AF09E3F510578F00C945C15FE
:102370000C94A7155F3FE4F3983ED4F386957795C8
:102380006795B795F7959F5FC9F7880F911D96954B
:10239000879597F90895E1E0660F771F881FBB1FA7
:1023A000621773078407BA0720F0621B730B840B54
:1023B000BA0BEE1F88F7E09508950E948C1588F0FF
:1023C0009F5798F0B92F9927B751B0F0E1F0660FF9
:1023D000771F881F991F1AF0BA95C9F714C0B1303A
:1023E00091F00E94A615B1E008950C94A615672FF0
:1023F000782F8827B85F39F0B93FCCF38695779569
:102400006795B395D9F73EF4909580957095619551
:102410007F4F8F4F9F4F089581E090E0F8940C9488
:10242000E415AEE0B0E0E7E1F2E10C94BB150D89F4
:102430001E8986E08C831A8309838FEF9FE79E8332
:102440008D83AE01475E5F4F6F89788DCE01019617
:102450000E9434122F813885F801E20FF31F108299
:102460002E96E4E00C94D715ACE0B0E0EAE3F2E19C
:102470000C94AD157C016B018A01FC011782168258
:10248000838181FFBDC1CE0101964C01F70193818B
:10249000F60193FD859193FF81916F01882309F4E3
:1024A000ABC1853239F493FD859193FF81916F0122
:1024B000853229F4B70190E00E941C14E7CF512C1B
:1024C000312C20E02032A0F48B3269F030F48032DD
:1024D00059F0833269F420612CC08D3239F0803399
:1024E00039F4216026C02260246023C0286021C006
:1024F00027FD27C030ED380F3A3078F426FF06C0AC
:10250000FAE05F9E300D1124532E13C08AE0389EEE
:10251000300D1124332E20620CC08E3221F426FDA2
:102520006BC1206406C08C3611F4206802C0883666
:1025300041F4F60193FD859193FF81916F01811123
:10254000C1CF982F9F7D9554933028F40C5F1F4F77
:10255000FFE3F9830DC0833631F0833771F08335A3
:1025600009F05BC022C0F801808189830E5F1F4F94
:1025700044244394512C540115C03801F2E06F0EED
:10258000711CF801A080B18026FF03C0652D70E0AA
:1025900002C06FEF7FEFC5012C870E9411142C0140
:1025A00083012C852F77222E17C03801F2E06F0EA1
:1025B000711CF801A080B18026FF03C0652D70E07A
:1025C00002C06FEF7FEFC5012C870E9406142C011B
:1025D0002C852068222E830123FC1BC0832D90E0D4
:1025E00048165906B0F4B70180E290E00E941C142E
:1025F0003A94F4CFF50127FC859127FE81915F0184
:10260000B70190E00E941C1431103A94F1E04F1A87
:1026100051084114510471F7E5C0843611F0893630
:1026200039F5F80127FF07C06081718182819381AC
:102630000C5F1F4F08C060817181072E000C880B52
:10264000990B0E5F1F4F2F76722E97FF09C0909542
:102650008095709561957F4F8F4F9F4F2068722EA8
:102660002AE030E0A4010E945414A82EA81844C007
:10267000853729F42F7EB22E2AE030E025C0F22FD4
:10268000F97FBF2E8F36C1F018F4883579F0B4C0C9
:10269000803719F0883721F0AFC02F2F2061B22E7C
:1026A000B4FE0DC08B2D8460B82E09C024FF0AC073
:1026B0009F2F9660B92E06C028E030E005C020E1CB
:1026C00030E002C020E132E0F801B7FE07C06081CF
:1026D0007181828193810C5F1F4F06C0608171817F
:1026E00080E090E00E5F1F4FA4010E945414A82EBA
:1026F000A818FB2DFF777F2E76FE0BC0372D3E7F6F
:10270000A51450F474FE0AC072FC08C0372D3E7E3A
:1027100005C0BA2C372D03C0BA2C01C0B52C34FF2C
:102720000DC0FE01EA0DF11D8081803311F4397E68
:1027300009C032FF06C0B394B39404C0832F8678D7
:1027400009F0B39433FD13C030FF06C05A2CB31404
:1027500018F4530C5B18B32CB31468F4B70180E27F
:1027600090E03C870E941C14B3943C85F5CFB314D1
:1027700010F43B1801C0312C34FF12C0B70180E3C4
:1027800090E03C870E941C143C8532FF17C031FD4D
:1027900003C088E790E002C088E590E0B7010CC074
:1027A000832F867859F031FF02C08BE201C080E2AE
:1027B00037FD8DE2B70190E00E941C14A51438F497
:1027C000B70180E390E00E941C145A94F7CFAA94BA
:1027D000F401EA0DF11D8081B70190E00E941C1404
:1027E000A110F5CF332009F451CEB70180E290E07B
:1027F0000E941C143A94F6CFF7018681978102C09B
:102800008FEF9FEF2C96E2E10C94C915FC01059027
:10281000615070400110D8F7809590958E0F9F1FE2
:102820000895FC016150704001900110D8F7809527
:1028300090958E0F9F1F08950F931F93CF93DF9353
:10284000FB01238121FD03C08FEF9FEF28C022FFF2
:1028500016C046815781248135814217530744F4BD
:10286000A081B1819D012F5F3F4F318320838C93E5
:10287000268137812F5F3F4F3783268310C0EB01BE
:10288000092F182F0084F185E02D0995892BE1F699
:102890008E819F8101969F838E83812F902FDF9160
:1028A000CF911F910F910895FA01AA27283051F175
:1028B000203181F1E8946F936E7F6E5F7F4F8F4F71
:1028C0009F4FAF4FB1E03ED0B4E03CD0670F781FD0
:1028D000891F9A1FA11D680F791F8A1F911DA11DB5
:1028E0006A0F711D811D911DA11D20D009F46894EE
:1028F0003F912AE0269F11243019305D3193DEF696
:10290000CF010895462F4770405D4193B3E00FD04B
:10291000C9F7F6CF462F4F70405D4A3318F0495D36
:1029200031FD4052419302D0A9F7EACFB4E0A69519
:102930009795879577956795BA95C9F7009761053B
:10294000710508959B01AC010A2E06945795479591
:1029500037952795BA95C9F7620F731F841F951F86
:10296000A01D0895E89409C097FB3EF490958095CA
:10297000709561957F4F8F4F9F4F9923A9F0F92F45
:1029800096E9BB279395F695879577956795B795C3
:10299000F111F8CFFAF4BB0F11F460FF1BC06F5FA9
:1029A0007F4F8F4F9F4F16C0882311F096E911C0BB
:1029B000772321F09EE8872F762F05C0662371F0DC
:1029C00096E8862F70E060E02AF09A95660F771FF0
:1029D000881FDAF7880F9695879597F908950E94D2
:1029E00002150C9473150E94651538F00E946C1541
:1029F00020F0952311F00C945C150C9462151124B1
:102A00000C94A7150E94841570F3959FC1F3950F40
:102A100050E0551F629FF001729FBB27F00DB11D62
:102A2000639FAA27F00DB11DAA1F649F6627B00DF2
:102A3000A11D661F829F2227B00DA11D621F739FDB
:102A4000B00DA11D621F839FA00D611D221F749FE9
:102A50003327A00D611D231F849F600D211D822F30
:102A6000762F6A2F11249F5750409AF0F1F0882357
:102A70004AF0EE0FFF1FBB1F661F771F881F915084
:102A80005040A9F79E3F510580F00C945C150C94C2
:102A9000A7155F3FE4F3983ED4F386957795679545
:102AA000B795F795E7959F5FC1F7FE2B880F911DAE
:102AB0009695879597F9089597F99F6780E870E054
:102AC00060E008959FEF80EC089500240A941616A4
:102AD000170618060906089500240A94121613060C
:102AE000140605060895092E0394000C11F488239A
:102AF00052F0BB0F40F4BF2B11F460FF04C06F5FB6
:102B00007F4F8F4F9F4F089557FD9058440F551F8B
:102B100059F05F3F71F04795880F97FB991F61F05F
:102B20009F3F79F087950895121613061406551FD6
:102B3000F2CF4695F1DF08C0161617061806991F42
:102B4000F1CF86957105610508940895E894BB2737
:102B500066277727CB0197F908952F923F924F92DE
:102B60005F926F927F928F929F92AF92BF92CF921D
:102B7000DF92EF92FF920F931F93CF93DF93CDB726
:102B8000DEB7CA1BDB0B0FB6F894DEBF0FBECDBF9E
:102B900009942A88398848885F846E847D848C846F
:102BA0009B84AA84B984C884DF80EE80FD800C8178
:102BB0001B81AA81B981CE0FD11D0FB6F894DEBF5B
:0C2BC0000FBECDBFED010895F894FFCFCB
:102BCC00E400E40000000000B3084E089B087908FC
:102BDC008D08FA080000000063053E02E5000105BF
:102BEC008D04B2056D0618012507AD04CC05F9035B
:102BFC00A6019301656D707479696E670073616DE0
:102C0C00706C65456E63727970744B6579005374A2
:102C1C00617274206E6F64652E2E2E005350492005
:102C2C00466C61736820496E6974204641494C2199
:102C3C0000466C61736820636F6E74656E743A0045
:102C4C0045726173696E6720466C617368206368B6
:102C5C006970202E2E2E2000444F4E450044657680
:102C6C0069636549443A20005265626F6F74696EFE
:102C7C00670052464D363920726567697374657208
:102C8C00733A0041646472657373202D2048455873
:102C9C00202D2042494E00202D20000A57726974C5
:102CAC0065427974652800476F74205B005D203E97
:102CBC00200053504920466C61736820496E69743A
:102CCC00204F4B2100726164696F205B00464C58A9
:102CDC003A25753A4F4B00464C583F4F4B00464CEB
:102CEC00583F4F4B20726573656E6400494D472009
:102CFC00657863656564732033316B2C207265666F
:102D0C007573696E6720697400464C583F4E4F4B83
:102D1C0000554E5368696674696E67206368616E0E
:102D2C006E656C20746F2000464C41534820494D11
:102D3C0047205452414E534D495353494F4E205303
:102D4C00554343455353210A0054696D656F75749F
:102D5C002F4572726F722C2065726173696E6720D9
:102D6C007772697474656E2064617461202E2E2EE6
:102D7C002000464C583F4F4B202841434B20736555
:102D8C006E742900464C58494D473A000D0A0052C2
:0A2D9C0045424F4F54494E470000D6
:00000001FF
