:100000000C9462000C94FF030C94D8030C948A00A7
:100010000C948A000C948A000C948A000C948A0038
:100020000C948A000C948A000C948A000C948A0028
:100030000C948A000C948A000C948A000C948A0018
:100040000C948E030C948A000C94F7010C94D1014B
:100050000C948A000C948A000C948A000C948A00F8
:100060000C948A000C948A000000000025002800EF
:100070002B000000000023002600290000000008DB
:10008000000201000003040700000000000000005F
:1000900000000000240027002A00010204081020AC
:1000A000408001020408102001020408102004040A
:1000B0000404040404040202020202020303030310
:1000C0000303C91011241FBECFEFD8E0DEBFCDBFA0
:1000D00012E0A0E0B1E0ECE6FBE202C005900D9278
:1000E000AA3DB107D9F723E0AAEDB2E001C01D9205
:1000F000AE3DB207E1F710E0C2E6D0E004C02197C0
:10010000FE010E943511C136D107C9F70E947D0C4E
:100110000C94B4150C940000FC01918D828D9817FD
:1001200061F0828DDF01A80FB11D5D968C91928DDB
:100130009F5F9F73928F90E008958FEF9FEF0895D8
:10014000FC01918D828D981731F0828DE80FF11DA1
:10015000858D90E008958FEF9FEF0895FC01918DBC
:10016000228D892F90E0805C9F4F821B91098F73B5
:1001700099270895FC01848DDF01A80FB11DA35AB2
:10018000BF4F2C91848D90E001968F739927848FB7
:10019000A689B7892C93A089B1898C9180648C93AE
:1001A000938D848D981306C00288F389E02D808199
:1001B0008F7D80830895EF92FF920F931F93CF93CB
:1001C000DF93EC0181E0888F9B8D8C8D981305C0A7
:1001D000E889F989808185FD24C0F62E0B8D10E019
:1001E0000F5F1F4F0F731127E02E8C8DE8120CC08C
:1001F0000FB607FCFACFE889F989808185FFF5CF32
:10020000CE010E94BA00F1CF8B8DFE01E80FF11DE7
:10021000E35AFF4FF0820B8FEA89FB89808180626D
:1002200007C0EE89FF896083E889F989808180644D
:10023000808381E090E0DF91CF911F910F91FF903B
:10024000EF900895CF93DF93EC01888D8823C9F058
:10025000EA89FB89808185FD05C0A889B9898C91CF
:1002600086FD0FC00FB607FCF5CF808185FFF2CF6A
:10027000A889B9898C9185FFEDCFCE010E94BA0083
:10028000E7CFDF91CF91089580E090E0892B29F0AE
:100290000E94C40881110C9400000895833081F0FD
:1002A00028F4813099F08230A1F008958730A9F0C8
:1002B0008830B9F08430D1F4809180008F7D03C004
:1002C000809180008F7780938000089584B58F7728
:1002D00002C084B58F7D84BD08958091B0008F7772
:1002E00003C08091B0008F7D8093B00008953FB728
:1002F000F8948091E6029091E702A091E802B09113
:10030000E90226B5A89B05C02F3F19F00196A11D53
:10031000B11D3FBFBA2FA92F982F8827820F911D9B
:10032000A11DB11DBC01CD0142E0660F771F881FE2
:10033000991F4A95D1F708950895F8942091D20312
:10034000233021F42091E00221110FC02091D2032B
:10035000233011F4789407C0DC01ED91FC91028800
:10036000F389E02D099580E00895DC01ED91FC9181
:100370000488F589E02D61E0099581E0089581E028
:100380008093EC028091EA029091EB02DC01ED9106
:10039000FC910484F585E02D09951092EC020895F6
:1003A00008951F920F920FB60F9211242F933F932F
:1003B0004F935F936F937F938F939F93AF93BF936D
:1003C000EF93FF938EE293E00E94BA00FF91EF91CA
:1003D000BF91AF919F918F917F916F915F914F915D
:1003E0003F912F910F900FBE0F901F9018951F9265
:1003F0000F920FB60F9211242F938F939F93EF9329
:10040000FF93E0913E03F0913F038081E09144032C
:10041000F091450382FD12C09081809147038F5F68
:100420008F7320914803821751F0E0914703F0E069
:10043000E25DFC4F958F8093470301C08081FF915F
:10044000EF919F918F912F910F900FBE0F901F9062
:100450001895CF93DF93282F30E0F901E458FF4F30
:100460008491F901E656FF4FD491F901E255FF4F0F
:10047000C491CC2391F081110E944E01EC2FF0E049
:10048000EE0FFF1FEE58FF4FA591B491EC91ED23B5
:1004900081E090E021F480E002C080E090E0DF9114
:1004A000CF9108951F93CF93DF93282F30E0F90168
:1004B000E458FF4F8491F901E656FF4FD491F901BA
:1004C000E255FF4FC491CC23C9F0162F81110E9431
:1004D0004E01EC2FF0E0EE0FFF1FE859FF4FA59102
:1004E000B4918FB7F894111105C09C91ED2FE09550
:1004F000E92302C0EC91ED2BEC938FBFDF91CF91FC
:100500001F910895CF93DF93EC0161E08A810E94EF
:10051000520289858CBD8A858DBD8091EC02811146
:1005200001C07894DF91CF910895FC01F8948CB5C7
:1005300081878DB582878CB5837F8CBD8CB58F7D8F
:100540008CBD8CB58C7F8CBD8DB58E7F8DBD60E0F4
:1005500082810C945202CF93DF9390E0FC01E65627
:10056000FF4F2491FC01E255FF4F8491882361F1F4
:1005700090E0880F991FFC01E057FF4FC591D4917F
:10058000FC01E859FF4FA591B491611109C09FB7D3
:10059000F8948881209582238883EC912E230BC0C8
:1005A000623061F49FB7F8943881822F809583235D
:1005B0008883EC912E2B2C939FBF06C08FB7F894A5
:1005C000E8812E2B28838FBFDF91CF9108958F92E2
:1005D0009F92AF92BF92CF92DF92EF92FF926B0108
:1005E0007C010E9477014B015C01C114D104E1043C
:1005F000F104F1F00E947701DC01CB01881999091F
:10060000AA09BB09883E9340A105B10570F321E01A
:10061000C21AD108E108F10888EE880E83E0981E1E
:10062000A11CB11CC114D104E104F10419F7DDCF00
:10063000FF90EF90DF90CF90BF90AF909F908F9002
:1006400008952FB7F8946091E2027091E3028091CF
:10065000E4029091E5022FBF08953F924F925F927E
:100660006F927F928F929F92AF92BF92CF92DF92C2
:10067000EF92FF920F931F93CF93DF93EC01162F0E
:100680005A01922E302E812CCE2CD12CE12CF12C23
:10069000E881F9810190F081E02D01E0292DA5018B
:1006A000612FCE0109950E9421032B013C010E947C
:1006B0002103DC01CB0184199509A609B7098C1522
:1006C0009D05AE05BF05A0F4E881F9810480F581A0
:1006D000E02DCE010995882351F39091EF029117F7
:1006E00011F01F3F21F79091DD02911105C0DFCF7E
:1006F0008394381468F680E0DF91CF911F910F91B9
:10070000FF90EF90DF90CF90BF90AF909F908F9031
:100710007F906F905F904F903F9008951F920F923F
:100720000FB60F9211242F933F938F939F93AF9304
:10073000BF938091E2029091E302A091E402B09114
:10074000E5023091E10223E0230F2D3720F40196DA
:10075000A11DB11D05C026E8230F0296A11DB11DE4
:100760002093E1028093E2029093E302A093E402DB
:10077000B093E5028091E6029091E702A091E80231
:10078000B091E9020196A11DB11D8093E6029093FC
:10079000E702A093E802B093E902BF91AF919F9165
:1007A0008F913F912F910F900FBE0F901F90189532
:1007B0001F920F920FB60F9211242F933F934F93D6
:1007C0005F936F937F938F939F93AF93BF93EF93B9
:1007D000FF93E0910201F09103010995FF91EF91E0
:1007E000BF91AF919F918F917F916F915F914F9149
:1007F0003F912F910F900FBE0F901F9018951F9251
:100800000F920FB60F9211242F933F934F935F9344
:100810006F937F938F939F93AF93BF93EF93FF93C8
:10082000E0910001F09101010995FF91EF91BF91D5
:10083000AF919F918F917F916F915F914F913F9178
:100840002F910F900FBE0F901F901895CF93DF93AD
:10085000EC0161E088810E9452028B818CBD8C8109
:100860008DBDDF91CF910895FC018CB583838DB54B
:100870008483958186819CBD8DBD60E080810C94D0
:1008800052028EBD00000DB407FEFDCF8EB5089557
:100890000F931F93CF93DF93EC01162F442339F06E
:1008A00040E066E00E944804CE010E942604CE018A
:1008B0000E94340485E00E94410480E00E944104CB
:1008C000082FCE010E94260400FDF1CFCE010E9428
:1008D0003404812FDF91CF911F910F910C9441042B
:1008E000EF92FF920F931F93CF93DF931F92CDB799
:1008F000DEB77C01142F062F41E062E559830E9488
:100900004804802F0E9441045981852F0E94410490
:10091000812F0E944104C7010F90DF91CF911F9159
:100920000F91FF90EF900C942604EF92FF920F939B
:100930001F93CF93DF9300D0CDB7DEB77C01142F88
:10094000062F41E062E02A8359830E944804802FE9
:100950000E9441045981852F0E944104812F0E94E9
:1009600041042A81822F0E944104C7010F900F90F9
:10097000DF91CF911F910F91FF90EF900C9426047F
:100980000F931F93CF93DF9300D0CDB7DEB78C01C9
:10099000DC01ED91FC91008CF18DE02D4A8369839F
:1009A00009956981862F80680E9441044A81842FBD
:1009B0000E944104D801ED91FC91028CF38DE02D51
:1009C000C8010F900F90DF91CF911F910F91099463
:1009D0001F93CF93DF93EC01162F611102C045E501
:1009E00001C04DE56AE5CE010E94C004111102C0AC
:1009F00040E701C04CE76CE5CE01DF91CF911F913C
:100A00000C94C004CF92DF92EF92FF921F93CF938A
:100A1000DF93EC016A017B011091D203143039F4A9
:100A2000E881F9810488F589E02D63E00995C70123
:100A3000B6010E94821420E034E244E752E40E94AE
:100A40003B110E94AD116B017C01A701662777273E
:100A500067E0CE010E94C00477276F2D5E2D4D2DDB
:100A600068E0CE010E94C0044C2D69E0CE010E94D6
:100A7000C004133041F4E881F9810488F589E02D40
:100A800062E0CE010995E881F9810488F589E02DBD
:100A9000612FCE01DF91CF911F91FF90EF90DF90FA
:100AA000CF900994EF92FF921F93CF93DF931F9201
:100AB000CDB7DEB77C01DC01ED91FC91008CF18DAE
:100AC000E02D698309956981862F8F770E94410403
:100AD00080E00E944104182FD701ED91FC91028C17
:100AE000F38DE02DC7010995812F0F90DF91CF91F4
:100AF0001F91FF90EF900895CF93DF93EC016887EB
:100B0000611102C04AE101C04FE063E1CE010E94E1
:100B1000C0048885882341F061E1CE010E9452051E
:100B20008F71482F406602C04F81406861E1CE015D
:100B3000DF91CF910C94C004CF93DF93EC0110921E
:100B40002D031092EF021092DF021092E002109239
:100B5000DE021092DD021092DC021092DB0268E2EB
:100B60000E94520582FF0AC06DE3CE010E94520529
:100B7000482F44606DE3CE010E94C00440E465E26A
:100B8000CE010E94C004E881F9810488F589E02D36
:100B900063E0CE01DF91CF910994CF93DF93209151
:100BA000D2032330C9F42091E002211115C0EC01D9
:100BB00064E20E94520590E09195819591098C34F0
:100BC0009F4F54F4E881F9810488F589E02D61E0B4
:100BD000CE01099581E001C080E0DF91CF910895B9
:100BE0004F925F926F927F92AF92BF92CF92DF92BD
:100BF000EF92FF920F931F93CF93DF93EC015B0172
:100C0000F42E1092DE021091EF02C090DB02D09021
:100C1000DC026DE30E945205482F44606DE3CE0173
:100C20000E94C0040E9421032B013C01CE010E94BE
:100C3000CD05882311F11093EF02E881F981008836
:100C4000F189E02DEE24E39400E02F2DA501612F22
:100C5000CE010995D092DC02C092DB02DF91CF91E8
:100C60001F910F91FF90EF90DF90CF90BF90AF90CA
:100C70007F906F905F904F9008950E942103DC0158
:100C8000CB0184199509A609B709883E9340A105AF
:100C9000B10588F6E881F9810480F581E02DCE0167
:100CA0000995C4CF8F929F92AF92BF92CF92DF925D
:100CB000EF92FF920F931F93CF93DF93EC01162FC8
:100CC0006A01F22E6DE30E945205482F44606DE3E5
:100CD000CE010E94C0040E9421034B015C01CE01A1
:100CE0000E94CD058823C1F0E881F9810088F1894F
:100CF000E02DE12C2F2DA601612FCE010995DF916A
:100D0000CF911F910F91FF90EF90DF90CF90BF9008
:100D1000AF909F908F9008950E942103DC01CB013A
:100D200088199909AA09BB09883E9340A105B10514
:100D3000D8F6E881F9810480F581E02DCE0109958E
:100D4000CECFCF93DF93EC01603208F06FE16F8379
:100D50008885882311F066956F8361E1CE010E943A
:100D60005205807E9F81482F492B61E1CE01DF91A2
:100D7000CF910C94C0041F93CF93DF932091D203A3
:100D8000621709F45DC0162FEC016230E9F168F4D6
:100D9000662309F440C0613009F052C061E00E944E
:100DA0005205837E482F44603BC06330B9F0643005
:100DB00009F046C061E00E945205837E482F4C60D6
:100DC00061E0CE010E94C0048885882369F1E88132
:100DD000F9810688F789E02D61E013C061E00E9487
:100DE0005205837E482F406161E0CE010E94C0041D
:100DF00088858823C9F0E881F9810688F789E02D84
:100E000060E0CE01099510C061E00E945205837E2A
:100E1000482F486005C061E00E945205482F437E7C
:100E200061E0CE010E94C0048091D203811106C00E
:100E300067E2CE010E94520587FFF6CF1093D203DE
:100E4000DF91CF911F9108950F931F93CF93DF935D
:100E50008C0167E00E945205D82F68E0C8010E940B
:100E60005205C82F69E0C8010E9452054D2F50E07D
:100E700060E070E0BA0155274427480F511D611DFD
:100E8000711D8C2F90E0982F88278A019B01080FF5
:100E9000191F211D311DC901B8010E94821420E0D3
:100EA00034E244E752E40E94BF140E94AD11DF9186
:100EB000CF911F910F910895EF92FF921F93CF93BF
:100EC000DF93EC018091D203833001F568E2CE011B
:100ED0000E94520582FD2EC019C080912D038D33D2
:100EE00030F4E0912D03F0E0E051FD4F1082E881F5
:100EF000F981028CF38DE02DCE010995E881F9810D
:100F00000488F589E02D63E0CE01099564E2CE0105
:100F10000E94520590E0919581959109959587954C
:100F20009093DC028093DB02DF91CF911F91FF90C1
:100F3000EF900895E881F9810488F589E02D61E05A
:100F4000CE010995E881F981008CF18DE02DCE016B
:100F5000099580E00E94410480E00E944104809352
:100F6000E0028091E0028334D0F48091E00280932B
:100F7000E00280E00E9441048093DF028E818111B3
:100F800009C09091DF028D81981721F08091DF02D6
:100F90008F3F39F48091E002833018F017C082E46B
:100FA000E6CF1092E002E881F981028CF38DE02D0A
:100FB000CE010995E881F9810288F389E02DCE01FF
:100FC000DF91CF911F91FF90EF9009948091E00203
:100FD000835080932D0380E00E9441048093EF02B0
:100FE00080E00E944104982F90789093DD02982F22
:100FF00090749093DE02E881F9810684F785E02DF4
:10100000682FCE01099510E080912D03181708F084
:1010100064CFE12EF12C80E00E944104F701E05101
:10102000FD4F80831F5FF0CFCF92DF92EF92FF9250
:101030000F931F93CF93DF93EC01F62ED42EC52E82
:10104000122FE881F9810488F589E02D61E0099586
:1010500067E2CE010E94520587FFFACF40E065E2C9
:10106000CE010E94C0041E3308F01DE3E11004C04D
:10107000002321F000E403C000E801C000E0E881A3
:10108000F981008CF18DE02DCE01099580E80E9458
:10109000410483E0810F0E9441048F2D0E9441048E
:1010A0008D810E944104802F0E9441040D2DED2C62
:1010B000FC2C8E2D801B811730F4F70181917F016C
:1010C0000E944104F6CFE881F981028CF38DE02D76
:1010D000CE010995E881F9810488F589E02D64E065
:1010E000CE0109950E9421036B017C018B810E9436
:1010F0002902892B81F0E881F9810488F589E02DA6
:1011000061E0CE01DF91CF911F910F91FF90EF90A1
:10111000DF90CF9009940E942103DC01CB018C1950
:101120009D09AE09BF09883E9340A105B105F0F2C3
:10113000E2CFCF92DF92EF92FF920F931F93CF9364
:10114000DF936C017A018B01C0E0D0E0CE15DF05A2
:1011500089F0D8016D918D01D601ED91FC9101903E
:10116000F081E02DC6010995892B11F47E0102C0A2
:101170002196ECCFC701DF91CF911F910F91FF9086
:10118000EF90DF90CF9008958EE293E00E94AE0042
:1011900021E0892B09F420E0822F08950E94DC11C0
:1011A000009769F0FC0101900020E9F73197AF0149
:1011B000481B590BBC018EE293E00C94990880E027
:1011C00090E0089585E092E00C94D008CF93DF93EF
:1011D0000E94D008EC010E94E2088C0F9D1FDF9155
:1011E000CF910895CF93DF938BEC93E00E9434046A
:1011F0008FE90E94410480E00E944104C82FD0E0A2
:10120000DC2FCC2780E00E944104C82B8BEC93E0BC
:101210000E942604CE01DF91CF9108950C94D0084E
:10122000EF92FF920F931F93CF93DF93EC0161E056
:1012300083ED93E00E94BB062097C1F083ED93E01D
:101240000E9495028EEB0E9441048E017E0180E196
:10125000E80EF11CF80181918F010E9441040E15E6
:101260001F05C1F783ED93E00E9482026DE383EDD9
:1012700093E00E9452058E7F41E0CD2B09F440E0BF
:10128000482B6DE383ED93E0DF91CF911F910F9198
:10129000FF90EF900C94C004E0912E03F0912F0387
:1012A0000190F081E02D682F8EE293E0099488E0B0
:1012B00092E00E940E0998E088E10FB6F894A89594
:1012C000809360000FBE909360008EE20E944C09F4
:1012D000FCCF8F929F92AF92BF920F931F93CF93A9
:1012E000DF93CDB7DEB7A1970FB6F894DEBF0FBE80
:1012F000CDBF19A2423008F44AE08E010F5D1F4FA6
:10130000842E912CA12CB12CA50194010E941311C3
:10131000E62FB901CA0101501109EA3014F4E05D69
:1013200001C0E95CD801EC93232B242B252B61F71A
:10133000C8010E94D008A1960FB6F894DEBF0FBE78
:10134000CDBFDF91CF911F910F91BF90AF909F9034
:101350008F9008952F923F924F925F926F927F925B
:101360008F929F92AF92BF92CF92DF92EF92FF92B5
:101370000F931F93CF93DF93CDB7DEB7EE970FB6E2
:10138000F894DEBF0FBECDBFFC010DAB1EAB2FAB83
:1013900038AF49AF5AAF6BAF2DB73EB73DAF2CAFAB
:1013A00080912D03843008F488C28091F002863445
:1013B00009F083C28091F1028C3409F07EC28091E1
:1013C000F202883509F079C28091F3028F3309F077
:1013D00074C2A090EF0280912D038730A9F4809110
:1013E000F402853489F48091F5028F3469F4809198
:1013F000F602863449F400E026E044E252E06A2D29
:10140000CF010E94520659C208E111E01D8F0C8FD6
:1014100082818E8F83818F8F848188A3858189A328
:1014200086818AA387818BA380858CA381858DA3E8
:1014300082858EA387E0FE01F596DE019E960190DF
:101440000D928A95E1F746E064E272E0CE014C9697
:101450000E94F0058FEB92E00E94E60880E692E0A1
:101460000E940E09CE014C960E942407605C7D4BC1
:10147000804F9F4F4AE00E9469090E94E208CE0116
:101480004C960E942407AB01BC01405C5D4B604F51
:101490007F4FCE014C960E9402051A8B098B8E8DD0
:1014A0008B8B8F8D8C8B88A18D8B89A18E8B8AA144
:1014B0008F8B8BA1888F8CA1898F8DA18A8F8EA114
:1014C0008B8F87E0FE01BE96DE01979601900D920C
:1014D0008A95E1F740E050E0BA01CE0187960E947C
:1014E000700441E062E0CE0187960E94480480E0EB
:1014F0000E94410480E00E94410480E00E94410477
:1015000001ED12E0B2E0083D1B0731F0D8018D91EA
:101510008D010E944104F6CFCE0187960E942604D9
:101520002AE349E050E060E070E0CE0187960E9437
:1015300095040E9421031B012C010AE010E0812C7C
:10154000912CCE0141960E949D01B82E882301F175
:101550008091EF028A111CC0E0902D03F3E0FE158C
:1015600028F48091F002863409F478C061E089E0C3
:101570000E94AB0261E089E00E94520261E070E0EB
:1015800080E090E00E94E70260E089E00E94520261
:101590000E942103DC01CB0182199309A409B5093A
:1015A000893B9B40A105B10560F2B12C27C046E004
:1015B00064E272E0CE0141960E94F00584E292E07E
:1015C0000E94E6082F2D47E050E060E070E0CE0179
:1015D00087960E94950426EF200F48E050E060E0D7
:1015E00070E0CE0187960E9495042AE349E050E01E
:1015F00060E070E0CE0187960E9495048EE592E04F
:101600000E940E09CE014C960E9424076054724439
:101610008F4091094AE00E9469090E94E208CE01C8
:101620004C960E942407AB01BC01405452446F40C9
:101630007109CE014C960E940205BB2031F085E76E
:1016400092E00E940E090E94570986E992E00E94EA
:101650000E0988E991E00E94E6082FC18091F1020D
:101660008C3409F083CF8091F202883509F07ECF67
:101670008091F3028A3309F0DAC0E6E0EE1508F053
:10168000D6C084E090E0C12CD12CF82E2FEF280F8B
:10169000FC01E051FD4F3081303308F404C130814A
:1016A0003A3308F000C140815AE05C9D90015D9D95
:1016B000300D1124690160E3C61AD108C40ED11C93
:1016C00001968830910509F782E192E00E940E09A7
:1016D0008E2D90E0A0E0B0E04AE0BC01CD010E9478
:1016E00069098DEE91E00E940E096DB67EB64E2D11
:1016F00050E0440F551FCA0101962DB73EB7281B75
:10170000390B0FB6F8943EBF0FBE2DBF8DB79EB7F5
:1017100001962C013FEF431A530ADC0120EF32E01F
:10172000622FE0EFF2E06E1B6E15B8F4F9016191E3
:101730009F01762F72957F7070637A330CF0795D1C
:101740007C936F7060636A330CF0695DF2016083B3
:10175000F2E04F0E511C1296E3CFFC01E40FF51F8F
:1017600010820E94E6080FB6F8947EBE0FBE6DBED2
:10177000E1E0EF0DF0E0E051FD4F80818A3309F0A8
:1017800014CF0E9421031B012C01C814D90439F085
:10179000C4010197C816D90609F049C026C0F394C0
:1017A000F3944601FFEF8F1A9F0AFE14F0F4EF2D19
:1017B000F0E0E051FD4F208138013FEF631A730ADA
:1017C000A80160E070E0CE0187960E949504C301F5
:1017D0009F77892B39F4A30160E070E0CE018796F2
:1017E0000E947004F3948301E0CFDF92CF92AAE1CC
:1017F000B2E0BF93AF9321E030E02C0F3D1F3F9349
:101800002F930E94E111482FCE0101964EAF0E9406
:10181000E6084EADBE016F5F7F4FCE0141960E943C
:10182000F0050F900F900F900F900F900F908091F8
:10183000F3028F3309F09ACE34E0E3120CC046E095
:1018400064E272E0CE0141960E94F0058BE292E0E4
:101850000E94E6088BCE57E0E51288CE8091F40214
:10186000853409F083CE8091F5028F3409F07ECE65
:101870008091F602863409F079CE78016AE0E61AA2
:10188000F10881E0E8168CE7F80608F490CE89E3C9
:1018900092E00E94E60847E066E572E0CE014196DC
:1018A0000E94F00582CE30813A3309F009CF8F2DA6
:1018B000F22E843009F008CF78CE8CAD9DAD0FB6F6
:1018C000F8949EBF0FBE8DBFEE960FB6F894DEBFA4
:1018D0000FBECDBFDF91CF911F910F91FF90EF9081
:1018E000DF90CF90BF90AF909F908F907F906F9040
:1018F0005F904F903F902F900895CF93DF93CDB797
:10190000DEB7AE970FB6F894DEBF0FBECDBF7894AA
:1019100084B5826084BD84B5816084BD85B58260F4
:1019200085BD85B5816085BD80916E0081608093A5
:101930006E0010928100809181008260809381000E
:10194000809181008160809381008091800081601E
:10195000809380008091B10084608093B100809179
:10196000B00081608093B00080917A0084608093A1
:101970007A0080917A00826080937A0080917A0068
:10198000816080937A0080917A00806880937A00E9
:101990001092C10061E089E00E94AB02E0913E0339
:1019A000F0913F0382E08083E0913A03F0913B03A2
:1019B0001082E0913C03F0913D0330E130831092BE
:1019C0004603E0914203F091430326E02083E09137
:1019D0004003F0914103908190619083E091400336
:1019E000F0914103908198609083E0914003F091E1
:1019F0004103908190689083E0914003F09141030E
:101A000090819F7D90839EE2AE014F5F5F4F7A0190
:101A1000FA01492F11924A95E9F741E0498354E0D0
:101A20005A838B8343E04D838E835F8380E4888772
:101A300055E059874A872B8723E32C8747E04D875A
:101A400028E02F8729E0298B29E12B8B22E42C8B9E
:101A500055E25D8B8E8B56E25F8B488F48E2498F53
:101A60003A8F39E23B8F3CED3C8F9D8F98E89E8FFB
:101A70009FE29F8F9DE298A390E399A337E33BA356
:101A800030E93CA338E33DA32EA32CE32FA32FE89A
:101A900028A72DE329A722E12AA72FE62BA79CA799
:101AA0009FEF9DA79CE69E87888B84EA8AA361E0CE
:101AB0008091D5030E94520261E08091D5030E947B
:101AC000AB02DFB6F8948091ED02811127C0E8EBFC
:101AD000F0E08491E4EAF0E09491E82FF0E0EE0F7A
:101AE000FF1FE057FF4FA591B491EC91E92321F43A
:101AF00061E08AE00E94520261E08AE00E94AB024B
:101B00008CB580618CBD8CB580648CBD61E08DE04E
:101B10000E94AB0261E08BE00E94AB028091ED027B
:101B20008F5F8093ED02DFBE0E9421034B015C01B9
:101B30004AEA6FE283ED93E00E94C0046FE283ED16
:101B400093E00E9452058A3A61F00E942103DC0171
:101B5000CB0188199909AA09BB09C297A105B1054A
:101B600038F30E9421034B015C0145E56FE283EDF0
:101B700093E00E94C0046FE283ED93E00E9452055F
:101B8000853561F00E942103DC01CB018819990998
:101B9000AA09BB09C297A105B10538F3D12CF701F9
:101BA000ED0DF11DED0DF11D60816F3F39F04181AB
:101BB00083ED93E00E94C004D394F1CF80E090E0E5
:101BC0000E9410096091DB0383ED93E00E947C0585
:101BD00061E083ED93E00E94BB060E9421034B016C
:101BE0005C0167E283ED93E00E94520587FD0CC023
:101BF0000E942103DC01CB0188199909AA09BB09BC
:101C0000C297A105B10568F30E942103DC01CB0155
:101C100088199909AA09BB09C297A105B10540F520
:101C20001092EC028091D7038230C8F4E82FF0E0E4
:101C3000EE0FFF1FE050FF4F2FEB31E03183208389
:101C4000813039F080916900836080936900E89A5F
:101C500006C0809169008C6080936900E99A83EDE9
:101C600093E09093EB028093EA0282E08093D803A2
:101C700084E391E00E94100961E083ED93E00E940B
:101C80007C0585E491E00E940E098CB58093CE031B
:101C90008DB58093CF0361E08091CB030E94AB02AE
:101CA00080E58093D0031092D1038BEC93E00E94E7
:101CB000260440E06BEA8BEC93E00E9448048BEC36
:101CC00093E00E9426048091CC039091CD03892B50
:101CD00009F44FC20E94F2082091CC033091CD0349
:101CE0008217930709F445C283E591E00E94E60854
:101CF00061E083E00E94AB0260E084E00E94AB02FE
:101D000060E085E00E94AB0261E086E00E94AB02E9
:101D100060E087E00E94AB0260E089E00E94AB02D5
:101D200061E08EE00E94AB0260E08FE00E94AB02B7
:101D300060E080E10E94AB0260E081E10E94AB02C2
:101D400098E1C92E91E0D92E64EF71E080E090E037
:101D50000E94E70281E10E94290284E00E94290298
:101D600085E00E94290287E00E94290289E00E9402
:101D700029028FE00E94290280E10E94290281E16C
:101D80000E942902009769F460E083E00E945202F9
:101D900060E086E00E94520260E08EE00E94520203
:101DA0008BC0019709F088C088E691E00E94E608A0
:101DB00061E083E00E94520261E086E00E945202EC
:101DC00084E00E9429024C0185E00E9429023C0126
:101DD00087E00E9429025C0189E00E9429026A943E
:101DE000672871F7892861F7019751F7AB2841F708
:101DF00061E08EE00E94520260E27EE480E090E0CA
:101E00000E94E70260E27EE480E090E00E94E70248
:101E100060E27EE480E090E00E94E70260E27EE41F
:101E200080E090E00E94E70260E27EE480E090E0E3
:101E30000E94E70260E27EE480E090E00E94E70218
:101E400060E27EE480E090E00E94E70260E08EE0E5
:101E50000E9452028FE00E9429025C0180E10E94F0
:101E60002902AA94AB28B1F7892BA1F760E27EE49E
:101E700080E090E00E94E70260E086E00E9452026B
:101E800087E00E9429025C0189E00E942902AA944D
:101E9000AB28B1F7892BA1F760E083E00E945202E2
:101EA00084E00E9429025C0185E00E942902AA9434
:101EB000AB28B1F7892BA1F78EE293E00E94AE0028
:101EC000181619060CF0EAC08EE293E00E948C000E
:101ED0008093EE028436A1F581E791E00E94E60846
:101EE000812C912C540140E063E08BEC93E00E9444
:101EF000480480E00E944104892D0E944104882DFD
:101F00000E94410480E00E944104182F8BEC93E072
:101F10000E942604612F70E080E090E040E10E9482
:101F200069098EE20E944C094FEF841A940AA40AB0
:101F3000B40A51E085169506A104B104A1F634C097
:101F4000853621F580E891E00E940E0941E060E6C7
:101F50008BEC93E00E9448048BEC93E00E942604F3
:101F60008BEC93E00E94340485E00E94410480E001
:101F70000E944104B82E8BEC93E00E942604B0FC32
:101F8000EFCF88E991E00E94E60888C0893679F4AD
:101F90008DE991E00E940E090E94F208BC0180E0E8
:101FA00090E040E10E9469090E94E20877C0823710
:101FB00031F488EA91E00E940E090E9457098235A7
:101FC00009F047C082EB91E00E940E0983EC91E09A
:101FD0000E94E608812C912C5401839483ED93E0B8
:101FE0000E949502882D0E94410480E00E944104D5
:101FF000482E83ED93E00E94820240E1C501B401C6
:102000000E94690987ED91E00E940E09512C612C14
:10201000712C40E1C301B2010E94690987ED91E092
:102020000E940E0942E0C301B2010E9469090E94A8
:10203000E2088FEF881A980AA80AB80AE0E58E1617
:102040009104A104B10451F683ED93E00E94820251
:1020500025C080538A3010F58BED91E00E940E0967
:102060008091EE020E944C098FEC92E00E940E09D2
:102070000E94210360FD02C02BEB01C02AEA4091BF
:10208000EE02042E000C550B40535109052E000C96
:10209000660B770B8BEC93E00E94950483ED93E045
:1020A0000E949D01882309F461C087EE91E00E949F
:1020B0000E096091EF0270E080E090E04AE00E943B
:1020C00069098AE30E944C0960912D0370E080E069
:1020D00090E04AE00E9469098DEE91E00E940E09AD
:1020E000B12C80912D03B81678F4EB2DF0E0E0517F
:1020F000FD4F6081062E000C770B880B990B40E199
:102100000E946909B394EDCF0E94E208DA82C98285
:102110008091D5038B838091D6038C838091D703E4
:102120008D838091D8038E838091D9038F83809192
:10213000DA0388878091DB0389878091DC038A87B3
:102140008091DD038B870091CB031091CC0320910C
:10215000CD033091CE034091CF035091D0036091D5
:10216000D103C7010E94AA090E94E2080E9444010B
:10217000EBCD41E061E08BEC93E00E94480480E00D
:102180000E9441048BEC93E00E94260482EF91E0D0
:10219000ADCDEEE2F3E01382128288EE93E0A0E090
:1021A000B0E084839583A683B78388E091E0918330
:1021B000808385EC90E09587848784EC90E0978716
:1021C000868780EC90E0918B808B81EC90E0938B04
:1021D000828B82EC90E0958B848B86EC90E0978BE1
:1021E000868B118E128E138E148EE3EDF3E088E150
:1021F00091E0918380838AE0828382E083831482EA
:1022000081E08093D20316828FE187831086EBEC06
:10221000F3E080E58583168288E0808380E39FEE8B
:10222000928381830895A1E21A2EAA1BBB1BFD0194
:102230000DC0AA1FBB1FEE1FFF1FA217B307E407A5
:10224000F50720F0A21BB30BE40BF50B661F771FFD
:10225000881F991F1A9469F76095709580959095DD
:102260009B01AC01BD01CF010895EE0FFF1F05904A
:10227000F491E02D09940E944F110C9443150E9493
:102280003C1558F00E94351540F029F45F3F29F0C5
:102290000C942C1551110C9477150C9432150E9446
:1022A000541568F39923B1F3552391F3951B550BFE
:1022B000BB27AA2762177307840738F09F5F5F4F19
:1022C000220F331F441FAA1FA9F335D00E2E3AF058
:1022D000E0E832D091505040E695001CCAF72BD070
:1022E000FE2F29D0660F771F881FBB1F26173707C1
:1022F0004807AB07B0E809F0BB0B802DBF01FF27F3
:1023000093585F4F3AF09E3F510578F00C942C158E
:102310000C9477155F3FE4F3983ED4F38695779558
:102320006795B795F7959F5FC9F7880F911D9695AB
:10233000879597F90895E1E0660F771F881FBB1F07
:10234000621773078407BA0720F0621B730B840BB4
:10235000BA0BEE1F88F7E09508950E945C1588F08F
:102360009F5798F0B92F9927B751B0F0E1F0660F59
:10237000771F881F991F1AF0BA95C9F714C0B1309A
:1023800091F00E947615B1E008950C947615672FB0
:10239000782F8827B85F39F0B93FCCF386957795C9
:1023A0006795B395D9F73EF49095809570956195B2
:1023B0007F4F8F4F9F4F089581E090E0F8940C94E9
:1023C000B415AEE0B0E0E7EEF1E10C948B150D89A9
:1023D0001E8986E08C831A8309838FEF9FE79E8393
:1023E0008D83AE01475E5F4F6F89788DCE01019678
:1023F0000E9404122F813885F801E20FF31F10822A
:102400002E96E4E00C94A715ACE0B0E0EAE0F2E12F
:102410000C947D157C016B018A01FC0117821682E8
:10242000838181FFBDC1CE0101964C01F7019381EB
:10243000F60193FD859193FF81916F01882309F443
:10244000ABC1853239F493FD859193FF81916F0182
:10245000853229F4B70190E00E94EC13E7CF512CAC
:10246000312C20E02032A0F48B3269F030F480323D
:1024700059F0833269F420612CC08D3239F08033F9
:1024800039F4216026C02260246023C0286021C066
:1024900027FD27C030ED380F3A3078F426FF06C00C
:1024A000FAE05F9E300D1124532E13C08AE0389E4F
:1024B000300D1124332E20620CC08E3221F426FD03
:1024C0006BC1206406C08C3611F4206802C08836C7
:1024D00041F4F60193FD859193FF81916F01811184
:1024E000C1CF982F9F7D9554933028F40C5F1F4FD8
:1024F000FFE3F9830DC0833631F0833771F0833504
:1025000009F05BC022C0F801808189830E5F1F4FF4
:1025100044244394512C540115C03801F2E06F0E4D
:10252000711CF801A080B18026FF03C0652D70E00A
:1025300002C06FEF7FEFC5012C870E94E1132C01D1
:1025400083012C852F77222E17C03801F2E06F0E01
:10255000711CF801A080B18026FF03C0652D70E0DA
:1025600002C06FEF7FEFC5012C870E94D6132C01AC
:102570002C852068222E830123FC1BC0832D90E034
:1025800048165906B0F4B70180E290E00E94EC13BF
:102590003A94F4CFF50127FC859127FE81915F01E4
:1025A000B70190E00E94EC1331103A94F1E04F1A19
:1025B00051084114510471F7E5C0843611F0893691
:1025C00039F5F80127FF07C060817181828193810D
:1025D0000C5F1F4F08C060817181072E000C880BB3
:1025E000990B0E5F1F4F2F76722E97FF09C09095A3
:1025F0008095709561957F4F8F4F9F4F2068722E09
:102600002AE030E0A4010E942414A82EA81844C097
:10261000853729F42F7EB22E2AE030E025C0F22F34
:10262000F97FBF2E8F36C1F018F4883579F0B4C029
:10263000803719F0883721F0AFC02F2F2061B22EDC
:10264000B4FE0DC08B2D8460B82E09C024FF0AC0D3
:102650009F2F9660B92E06C028E030E005C020E12B
:1026600030E002C020E132E0F801B7FE07C060812F
:102670007181828193810C5F1F4F06C060817181DF
:1026800080E090E00E5F1F4FA4010E942414A82E4A
:10269000A818FB2DFF777F2E76FE0BC0372D3E7FCF
:1026A000A51450F474FE0AC072FC08C0372D3E7E9B
:1026B00005C0BA2C372D03C0BA2C01C0B52C34FF8D
:1026C0000DC0FE01EA0DF11D8081803311F4397EC9
:1026D00009C032FF06C0B394B39404C0832F867838
:1026E00009F0B39433FD13C030FF06C05A2CB31465
:1026F00018F4530C5B18B32CB31468F4B70180E2E0
:1027000090E03C870E94EC13B3943C85F5CFB31462
:1027100010F43B1801C0312C34FF12C0B70180E324
:1027200090E03C870E94EC133C8532FF17C031FDDE
:1027300003C088E790E002C088E590E0B7010CC0D4
:10274000832F867859F031FF02C08BE201C080E20E
:1027500037FD8DE2B70190E00E94EC13A51438F428
:10276000B70180E390E00E94EC135A94F7CFAA944B
:10277000F401EA0DF11D8081B70190E00E94EC1395
:10278000A110F5CF332009F451CEB70180E290E0DB
:102790000E94EC133A94F6CFF7018681978102C02C
:1027A0008FEF9FEF2C96E2E10C949915FC010590B8
:1027B000615070400110D8F7809590958E0F9F1F43
:1027C0000895FC016150704001900110D8F7809588
:1027D00090958E0F9F1F08950F931F93CF93DF93B4
:1027E000FB01238121FD03C08FEF9FEF28C022FF53
:1027F00016C046815781248135814217530744F41E
:10280000A081B1819D012F5F3F4F318320838C9345
:10281000268137812F5F3F4F3783268310C0EB011E
:10282000092F182F0084F185E02D0995892BE1F6F9
:102830008E819F8101969F838E83812F902FDF91C0
:10284000CF911F910F910895FA01AA27283051F1D5
:10285000203181F1E8946F936E7F6E5F7F4F8F4FD1
:102860009F4FAF4FB1E03ED0B4E03CD0670F781F30
:10287000891F9A1FA11D680F791F8A1F911DA11D15
:102880006A0F711D811D911DA11D20D009F468944E
:102890003F912AE0269F11243019305D3193DEF6F6
:1028A000CF010895462F4770405D4193B3E00FD0AC
:1028B000C9F7F6CF462F4F70405D4A3318F0495D97
:1028C00031FD4052419302D0A9F7EACFB4E0A6957A
:1028D0009795879577956795BA95C9F7009761059C
:1028E000710508959B01AC010A2E069457954795F2
:1028F00037952795BA95C9F7620F731F841F951FE7
:10290000A01D0895E89409C097FB3EF4909580952A
:10291000709561957F4F8F4F9F4F9923A9F0F92FA5
:1029200096E9BB279395F695879577956795B79523
:10293000F111F8CFFAF4BB0F11F460FF1BC06F5F09
:102940007F4F8F4F9F4F16C0882311F096E911C01B
:10295000772321F09EE8872F762F05C0662371F03C
:1029600096E8862F70E060E02AF09A95660F771F50
:10297000881FDAF7880F9695879597F908950E9432
:10298000D2140C9443150E94351538F00E943C1562
:1029900020F0952311F00C942C150C943215112471
:1029A0000C9477150E94541570F3959FC1F3950F01
:1029B00050E0551F629FF001729FBB27F00DB11DC3
:1029C000639FAA27F00DB11DAA1F649F6627B00D53
:1029D000A11D661F829F2227B00DA11D621F739F3C
:1029E000B00DA11D621F839FA00D611D221F749F4A
:1029F0003327A00D611D231F849F600D211D822F91
:102A0000762F6A2F11249F5750409AF0F1F08823B7
:102A10004AF0EE0FFF1FBB1F661F771F881F9150E4
:102A20005040A9F79E3F510580F00C942C150C9452
:102A300077155F3FE4F3983ED4F3869577956795D5
:102A4000B795F795E7959F5FC1F7FE2B880F911D0E
:102A50009695879597F9089597F99F6780E870E0B4
:102A600060E008959FEF80EC089500240A94161604
:102A7000170618060906089500240A94121613066C
:102A8000140605060895092E0394000C11F48823FA
:102A900052F0BB0F40F4BF2B11F460FF04C06F5F16
:102AA0007F4F8F4F9F4F089557FD9058440F551FEC
:102AB00059F05F3F71F04795880F97FB991F61F0C0
:102AC0009F3F79F087950895121613061406551F37
:102AD000F2CF4695F1DF08C0161617061806991FA3
:102AE000F1CF86957105610508940895E894BB2798
:102AF00066277727CB0197F908952F923F924F923F
:102B00005F926F927F928F929F92AF92BF92CF927D
:102B1000DF92EF92FF920F931F93CF93DF93CDB786
:102B2000DEB7CA1BDB0B0FB6F894DEBF0FBECDBFFE
:102B300009942A88398848885F846E847D848C84CF
:102B40009B84AA84B984C884DF80EE80FD800C81D8
:102B50001B81AA81B981CE0FD11D0FB6F894DEBFBB
:0C2B60000FBECDBFED010895F894FFCF2B
:102B6C009C019C0100000000DB009908AE008C0069
:102B7C00A00022010000000052062D039D01F0056B
:102B8C007C05A1065C07D00114089C05BB06E80473
:102B9C009502820273616D706C65456E637279701B
:102BAC00744B6579005374617274206E6F64652E7A
:102BBC002E2E0053504920466C61736820496E6973
:102BCC0074204641494C2100656D707479696E67BB
:102BDC0000466C61736820636F6E74656E743A00A6
:102BEC0045726173696E6720466C61736820636817
:102BFC006970202E2E2E2000444F4E4500446576E1
:102C0C0069636549443A20005265626F6F74696E5E
:102C1C00670052464D363920726567697374657268
:102C2C00733A0041646472657373202D20484558D3
:102C3C00202D2042494E00202D20000A5772697425
:102C4C0065427974652800476F74205B005D203EF7
:102C5C00200053504920466C61736820496E69749A
:102C6C00204F4B21000D0A005245424F4F54494E04
:102C7C004700726164696F205B00464C583A2575B9
:102C8C003A4F4B00464C583F4F4B00464C583F4F29
:102C9C004B20726573656E6400494D4720657863FF
:102CAC00656564732033316B2C20726566757369AE
:102CBC006E6720697400464C583F4E4F4B00554E82
:102CCC005368696674696E67206368616E6E656CC3
:102CDC0020746F2000464C41534820494D472054E6
:102CEC0052414E534D495353494F4E205355434334
:102CFC00455353210A0054696D656F75742F4572E5
:102D0C00726F722C2065726173696E6720777269BD
:102D1C007474656E2064617461202E2E2E20004622
:102D2C004C583F4F4B202841434B2073656E742900
:0A2D3C0000464C58494D473A00008C
:107E0000112484B714BE81FFF0D085E080938100F7
:107E100082E08093C00088E18093C10086E0809377
:107E2000C20080E18093C4008EE0C9D0259A86E02C
:107E300020E33CEF91E0309385002093840096BBD3
:107E4000B09BFECF1D9AA8958150A9F7CC24DD24C4
:107E500088248394B5E0AB2EA1E19A2EF3E0BF2EE7
:107E6000A2D0813461F49FD0082FAFD0023811F036
:107E7000013811F484E001C083E08DD089C08234E0
:107E800011F484E103C0853419F485E0A6D080C0E4
:107E9000853579F488D0E82EFF2485D0082F10E0AE
:107EA000102F00270E291F29000F111F8ED06801E7
:107EB0006FC0863521F484E090D080E0DECF843638
:107EC00009F040C070D06FD0082F6DD080E0C81688
:107ED00080E7D80618F4F601B7BEE895C0E0D1E017
:107EE00062D089930C17E1F7F0E0CF16F0E7DF06D8
:107EF00018F0F601B7BEE89568D007B600FCFDCFD4
:107F0000A601A0E0B1E02C9130E011968C91119780
:107F100090E0982F8827822B932B1296FA010C0160
:107F200087BEE89511244E5F5F4FF1E0A038BF0790
:107F300051F7F601A7BEE89507B600FCFDCF97BE46
:107F4000E89526C08437B1F42ED02DD0F82E2BD052
:107F50003CD0F601EF2C8F010F5F1F4F84911BD097
:107F6000EA94F801C1F70894C11CD11CFA94CF0C13
:107F7000D11C0EC0853739F428D08EE10CD085E9AC
:107F80000AD08FE07ACF813511F488E018D01DD067
:107F900080E101D065CF982F8091C00085FFFCCF94
:107FA0009093C60008958091C00087FFFCCF809118
:107FB000C00084FD01C0A8958091C6000895E0E648
:107FC000F0E098E1908380830895EDDF803219F02E
:107FD00088E0F5DFFFCF84E1DECF1F93182FE3DFCA
:107FE0001150E9F7F2DF1F91089580E0E8DFEE27F6
:047FF000FF270994CA
:027FFE00040479
:0400000300007E007B
:00000001FF
